:100000000C945D000C9485000C9485000C94850084
:100010000C9485000C9485000C9485000C9485004C
:100020000C9485000C9485000C9485000C9485003C
:100030000C9485000C9485000C9485000C9485002C
:100040000C94C1020C9485000C9485000C948500DE
:100050000C9485000C9485000C9485000C9485000C
:100060000C9485000C94850000000008000201003B
:100070000003040700000000000000000000000072
:10008000250028002B0000000000240027002A0083
:10009000040404040404040402020202020203032E
:1000A0000303030301020408102040800102040836
:1000B00010200102040810209B0311241FBECFEF63
:1000C000D8E0DEBFCDBF11E0A0E0B1E0E0E8F7E0AE
:1000D00002C005900D92AC31B107D9F721E0ACE137
:1000E000B1E001C01D92AD33B207E1F710E0CDE5FC
:1000F000D0E004C02197FE010E94B803CC35D1079F
:10010000C9F70E940B030C94BE030C94000090E00E
:10011000FC01EC55FF4F249180579F4FFC018491C7
:10012000882399F090E0880F991FFC01EA57FF4F50
:10013000A591B491FC01E458FF4F859194918FB73C
:10014000F894EC91E22BEC938FBF0895AF92BF929D
:10015000CF92DF92EF92FF920F931F93CF93DF9393
:100160006C017B018B01040F151FEB015E01AE18C2
:10017000BF08C017D10759F06991D601ED91FC91E4
:100180000190F081E02DC6010995892B79F7C50111
:10019000DF91CF911F910F91FF90EF90DF90CF9063
:1001A000BF90AF90089590E0FC01E859FF4F249173
:1001B000FC01EC55FF4F3491FC01E057FF4FE491F7
:1001C000EE23C9F0222339F0233001F1A8F42130C5
:1001D00019F1223029F1F0E0EE0FFF1FE458FF4F34
:1001E000A591B4918FB7F894EC91611126C0309528
:1001F0003E233C938FBF08952730A9F02830C9F0E3
:10020000243049F7809180008F7D03C08091800069
:100210008F7780938000DFCF84B58F7784BDDBCF6D
:1002200084B58F7DFBCF8091B0008F778093B00035
:10023000D2CF8091B0008F7DF9CF3E2BDACF3FB780
:10024000F8948091210190912201A0912301B09115
:10025000240126B5A89B05C02F3F19F00196A11DCA
:10026000B11D3FBFBA2FA92F982F8827BC01CD0100
:10027000620F711D811D911D42E0660F771F881F5F
:10028000991F4A95D1F708958F929F92AF92BF928E
:10029000CF92DF92EF92FF924B015C010E941F010F
:1002A0006B017C010E941F016C197D098E099F0959
:1002B000683E734081059105A8F321E0821A9108F8
:1002C000A108B10888EEC80E83E0D81EE11CF11C1D
:1002D00081149104A104B10429F7FF90EF90DF90FD
:1002E000CF90BF90AF909F908F900895089590E029
:1002F00080E00895CF93DF93EC0160E08E810E944F
:10030000D30061E08E810E94D30060E08E810E9464
:10031000D3008BE891E00197F1F7DF91CF91089539
:10032000CF92DF92EF92FF920F931F93CF93DF93C1
:100330006C017C0187E0E80EF11CD0E0C0E0062FE4
:1003400010E0B8010C2E02C0759567950A94E2F78B
:100350006170F70181917F010E94D3002196C43022
:10036000D10579F7C601DF91CF911F910F91FF90D1
:10037000EF90DF90CF900C947A01CF92DF92EF92C2
:10038000FF920F931F93CF93DF93EC01F62E642F10
:100390008C810E94D3008D818F3F19F060E00E9414
:1003A000D3000F2D10E08F8584FF25C06E0187E0FC
:1003B000C80ED11CF12CE12CB8010E2C02C0759591
:1003C00067950A94E2F76170F60181916F010E94CE
:1003D000D300FFEFEF1AFF0A88E0E816F10461F797
:1003E000CE01DF91CF911F910F91FF90EF90DF90A1
:1003F000CF900C947A01B80184E0759567958A9541
:10040000E1F7CE010E9490016F2DCE01DF91CF91D7
:100410001F910F91FF90EF90DF90CF900C9490017F
:1004200040E0682F85E291E00C94BD0181E00E94DC
:1004300010028BE39FE10197F1F70895CF93DF93CB
:10044000823029F490913401986090933401809324
:1004500038011092390180E480933A0180E1809361
:100460003B0180E580933C01809129010E94870037
:1004700080912A018F3F11F00E94870080912B010B
:100480000E948700C5E2D1E09E0125523140809153
:10049000340184FD0AC084E090E0219628173907D2
:1004A0003CF48E810E948700EFCF88E090E0F5CF8A
:1004B0008BE39DE00197F1F760E0809129010E94B4
:1004C000D30060E080912B010E94D30080912A012B
:1004D0008F3F19F060E00E94D3008091340184FDC9
:1004E00034C063E085E291E00E949001CBE4D6E461
:1004F000CE010197F1F763E085E291E00E9490015F
:100500002197F1F763E085E291E00E94900183E595
:1005100092E00197F1F762E085E291E00E9490019C
:100520008091340180620E94100284E08093350142
:100530008CE00E9410020E94160282E08093360135
:1005400086E0DF91CF910C94100280620E9410022D
:100550008BE496E40197F1F78091340180620E9468
:10056000100283E592E00197F1F7809134018062F7
:100570000E941002D5CF41E00E94BD0181E090E0D1
:1005800008951F920F920FB60F9211242F933F934D
:100590008F939F93AF93BF9380911D0190911E0104
:1005A000A0911F01B091200130911C0123E0230F85
:1005B0002D3758F50196A11DB11D20931C01809384
:1005C0001D0190931E01A0931F01B0932001809103
:1005D000210190912201A0912301B0912401019663
:1005E000A11DB11D8093210190932201A0932301AD
:1005F000B0932401BF91AF919F918F913F912F9123
:100600000F900FBE0F901F90189526E8230F0296AB
:10061000A11DB11DD2CF789484B5826084BD84B50C
:10062000816084BD85B5826085BD85B5816085BDED
:1006300080916E00816080936E00109281008091A5
:10064000810082608093810080918100816080932D
:100650008100809180008160809380008091B10052
:1006600084608093B1008091B00081608093B0007D
:1006700080917A00846080937A0080917A00826011
:1006800080937A0080917A00816080937A008091D3
:100690007A00806880937A001092C1000E9416024E
:1006A00082E00E941E02C0E0D0E0E1E080913801CB
:1006B0008111E0E0E195F0E0EB5DFE4F8489806818
:1006C0000E94100244E050E06CE071E085E291E0AD
:1006D0000E94A60068EE73E080E090E00E94440172
:1006E000E0913801E23028F5E150F0E0EB5DFE4F9B
:1006F00084898F5F80680E9410024AE050E061E1C7
:1007000071E085E291E00E94A60068EE73E080E06F
:1007100090E00E9444010E94160260ED77E080E0C4
:1007200090E00E944401209709F4BFCF0E9400008E
:10073000BCCFE1E0DACFE5E2F1E01382128284E09F
:1007400091E09183808314828FEF858381E086839B
:1007500085E0878384E0808783E0818782E08287E9
:100760001386148615861686178681E00C941E0261
:10077000EE0FFF1F0590F491E02D0994F894FFCF40
:1007800000000000BB02A600770176014E6568619B
:0C079000004C50552050756E6A616200EC
:00000001FF
