:020000040000FA
:100000000C945D000C9485000C9485000C94850084
:100010000C9485000C9485000C9485000C9485004C
:100020000C9485000C9485000C9485000C9485003C
:100030000C9485000C9485000C9485000C9485002C
:100040000C9403040C9485000C9485000C9485009A
:100050000C9485000C9485000C9485000C9485000C
:100060000C9485000C9485000000000024002700FB
:100070002A0000000000250028002B0004040404CE
:100080000404040402020202020203030303030342
:10009000010204081020408001020408102001021F
:1000A00004081020000000080002010000030407FB
:1000B00000000000000000002E0511241FBECFEF3D
:1000C000D8E0DEBFCDBF11E0A0E0B1E0E0E6FFE0A8
:1000D00002C005900D92AC33B107D9F721E0ACE333
:1000E000B1E001C01D92A536B207E1F710E0CDE501
:1000F000D0E004C02197FE010E94A807CC35D107AB
:10010000C9F70E944D040C94AE070C940000AF9206
:10011000BF92CF92DF92EF92FF920F931F93CF93F4
:10012000DF936C017B018B01040F151FEB015E0156
:10013000AE18BF08C017D10759F06991D601ED91EB
:10014000FC910190F081E02DC6010995892B79F78A
:10015000C501DF91CF911F910F91FF90EF90DF903C
:10016000CF90BF90AF90089590E0FC01EC55FF4F09
:100170002491FC01E057FF4F3491FC01E458FF4FFC
:10018000E491EE23C9F0222339F0233001F1A8F4E1
:10019000213019F1223029F1F0E0EE0FFF1FEE5867
:1001A000FF4FA591B4918FB7F894EC91611126C0DF
:1001B00030953E233C938FBF08952730A9F0283017
:1001C000C9F0243049F7809180008F7D03C0809171
:1001D00080008F7780938000DFCF84B58F7784BDD8
:1001E000DBCF84B58F7DFBCF8091B0008F7780937C
:1001F000B000D2CF8091B0008F7DF9CF3E2BDACF07
:10020000CF93DF9390E0FC01E057FF4F2491845897
:100210009F4FFC0184918823D1F090E0880F991FB3
:10022000FC01E859FF4FA591B491FC01EE58FF4F36
:10023000C591D49161110EC09FB7F8948C91E22FB3
:10024000E0958E238C932881E223E8839FBFDF9182
:10025000CF9108958FB7F894EC91E22BEC938FBF78
:10026000F6CF3FB7F8948091410190914201A0915F
:100270004301B091440126B5A89B05C02F3F19F05A
:100280000196A11DB11D3FBFBA2FA92F982F882716
:10029000BC01CD01620F711D811D911D42E0660FF1
:1002A000771F881F991F4A95D1F708958F929F92C3
:1002B000AF92BF92CF92DF92EF92FF924B015C011F
:1002C0000E9431016B017C010E9431016C197D0992
:1002D0008E099F09683E734081059105A8F321E0CE
:1002E000821A9108A108B10888EEC80E83E0D81ED2
:1002F000E11CF11C81149104A104B10429F7FF90C1
:10030000EF90DF90CF90BF90AF909F908F90089527
:10031000089590E080E00895FC0101900020E9F745
:100320003197AF01481B590BBC018DE491E00C944F
:1003300087008F929F92AF92BF920F931F93CF939C
:10034000DF93CDB7DEB7A1970FB6F894DEBF0FBE2F
:10035000CDBF19A2423008F44AE08E010F5D1F4F55
:10036000842E912CB12CA12CA50194010E9486070A
:10037000E62FB901CA01EA30F4F4E05DD801EE934A
:100380008D01232B242B252B79F790E080E010970B
:1003900019F0CD010E948C01A1960FB6F894DEBF32
:1003A0000FBECDBFDF91CF911F910F91BF90AF9046
:1003B0009F908F900895E95CE1CFCF93DF93EC019C
:1003C00060E08E810E94B40061E08E810E94B400E2
:1003D00060E08E810E94B4008BE891E00197F1F714
:1003E000DF91CF910895CF92DF92EF92FF920F931A
:1003F0001F93CF93DF936C017C0187E0E80EF11C23
:10040000D0E0C0E0062F10E0B8010C2E02C07595B8
:1004100067950A94E2F76170F70181917F010E946C
:10042000B4002196C430D10579F7C601DF91CF9190
:100430001F910F91FF90EF90DF90CF900C94DD0112
:10044000CF92DF92EF92FF920F931F93CF93DF93A0
:10045000EC01F62E642F8C810E94B4008D818F3FB9
:1004600019F060E00E94B4000F2D10E08F8584FF2A
:1004700025C06E0187E0C80ED11CF12CE12CB8011B
:100480000E2C02C0759567950A94E2F76170F6012B
:1004900081916F010E94B400FFEFEF1AFF0A88E01C
:1004A000E816F10461F7CE01DF91CF911F910F9112
:1004B000FF90EF90DF90CF900C94DD01B80184E0C5
:1004C000759567958A95E1F7CE010E94F3016F2D2E
:1004D000CE01DF91CF911F910F91FF90EF90DF90B0
:1004E000CF900C94F30140E0682F8DE491E00C94E0
:1004F0002002CF93DF93823029F490915C019860C1
:1005000090935C01809360011092610180E480937C
:10051000620180E18093630180E58093640161E082
:10052000809151010E940001809152018F3F19F08A
:1005300061E00E94000161E0809153010E9400018E
:10054000CDE4D1E09E012D54314080915C0184FDC9
:100550000BC084E090E021962817390744F461E04D
:100560008E810E940001EECF88E090E0F4CF8BE313
:100570009DE00197F1F760E0809151010E94B40085
:1005800060E0809153010E94B400809152018F3F3E
:1005900019F060E00E94B40080915C0184FD39C0D4
:1005A00063E08DE491E00E94F301CBE4D6E4CE0158
:1005B0000197F1F763E08DE491E00E94F301219748
:1005C000F1F763E08DE491E00E94F30183E592E0AE
:1005D0000197F1F762E08DE491E00E94F3018091D0
:1005E0005C0180620E94730284E080935D018CE074
:1005F0000E94730281E00E9473028BE39FE10197E6
:10060000F1F782E080935E0186E0DF91CF910C9458
:10061000730280620E9473028BE496E40197F1F703
:1006200080915C0180620E94730283E592E00197F1
:10063000F1F780915C0180620E947302D0CF41E0AB
:100640000E94200281E090E008954F925F926F92A5
:100650007F928F929F92AF92BF92CF92DF92EF9252
:10066000FF920F931F93CF936B017C01742EAC010B
:100670009B010E948107882399F08CE091E0CF9143
:100680001F910F91FF90EF90DF90CF90BF90AF90B0
:100690009F908F907F906F905F904F900C948C0103
:1006A00046015701E894B7F82FEF3FEF4FE75FE7B8
:1006B000C501B4010E94810781110DC02FEF3FEFEA
:1006C0004FE75FE7C501B4010E94B70518161CF497
:1006D00080E191E0D4CF2FEF3FEF4FE75FE4C70118
:1006E000B6010E940F0718161CF484E191E0C7CFF1
:1006F0002FEF3FEF4FE75FECC701B6010E94B70550
:1007000087FDF3CF20E030E0A901C701B6010E94C8
:10071000B70510E000E087FF0CC041E06DE28DE41A
:1007200091E00E942002F7FAF094F7F8F09401E0CB
:1007300010E0C0E060E070E080E09FE37C1641F0F4
:1007400020E030E040E251E40E94BC05CF5FF6CFEC
:10075000A70196010E944B054B015C010E942E06E9
:100760002B013C014AE00E949901080F191FCC237C
:10077000C9F1C301B2010E945D069B01AC01C50134
:10078000B4010E944A054B015C0141E06EE28DE438
:1007900091E00E9420020F5F1F4FC15018F120E02E
:1007A00030E040E251E4C501B4010E9414072B017E
:1007B0003C010E942E064B01B12CA12C4AE0C50140
:1007C000B4010E949901080F191FC501B4010E94CC
:1007D0005D069B01AC01C301B2010E944A054B01B9
:1007E0005C01DBCFC801CF911F910F91FF90EF907B
:1007F000DF90CF90BF90AF909F908F907F906F9041
:100800005F904F9008951F920F920FB60F92112490
:100810002F933F938F939F93AF93BF9380913D010D
:1008200090913E01A0913F01B091400130913C0177
:1008300023E0230F2D3758F50196A11DB11D2093FC
:100840003C0180933D0190933E01A0933F01B09302
:1008500040018091410190914201A0914301B091EA
:1008600044010196A11DB11D809341019093420165
:10087000A0934301B0934401BF91AF919F918F9199
:100880003F912F910F900FBE0F901F90189526E863
:10089000230F0296A11DB11DD2CF789484B582603A
:1008A00084BD84B5816084BD85B5826085BD85B514
:1008B000816085BD80916E00816080936E00109292
:1008C000810080918100826080938100809181000D
:1008D000816080938100809180008160809380009E
:1008E0008091B10084608093B1008091B0008160FC
:1008F0008093B00080917A00846080937A00809128
:100900007A00826080937A0080917A00816080937F
:100910007A0080917A00806880937A001092C100FA
:1009200060E08EE00E94000182E00E94790288E18E
:1009300091E00E948C0168EB7BE080E090E00E94F7
:10094000560110E4C0E0D0E010937C0080917A0062
:10095000806480937A0080917A0086FDFCCF80913C
:10096000780060917900762F682F072E000C880B95
:10097000990B0E945F0620E030E04AEF53E40E94AA
:10098000140720E030EC4FE754E40E94BC0560936C
:10099000490170934A0180934B0190934C012DECD7
:1009A0003CEC4CEC5FE30E94140720E030E040E0B8
:1009B00052E40E944B056093450170934601809379
:1009C000470190934801E1E0809160018111E0E0EE
:1009D000E195F0E0E35BFE4F848980680E9473023A
:1009E00086E291E00E948C016091490170914A0178
:1009F00080914B0190914C0142E00E942503E091CF
:100A00006001E23048F5E150F0E0E35BFE4F84899D
:100A100080680E94730280E391E00E948C016091E3
:100A2000450170914601809147019091480142E053
:100A30000E94250364E670E080E090E00E94560189
:100A400064E670E080E090E00E945601209709F48F
:100A50007BCF0E94000078CFE1E0D6CFEDE4F1E05B
:100A60001382128284E091E09183808384E0848306
:100A70008FEF858385E0868383E0878382E08087AC
:100A800081E081871286138614861586168617865E
:100A90000C9479025058BB27AA270E9462050C9437
:100AA000D5060E94C70638F00E94CE0620F039F421
:100AB0009F3F19F426F40C94C4060EF4E095E7FB6E
:100AC0000C94BE06E92F0E94E60658F3BA17620797
:100AD00073078407950720F079F4A6F50C940807AE
:100AE0000EF4E0950B2EBA2FA02D0B01B901900149
:100AF0000C01CA01A0011124FF27591B99F0593F8D
:100B000050F4503E68F11A16F040A22F232F342FD4
:100B10004427585FF3CF469537952795A795F04022
:100B20005395C9F77EF41F16BA0B620B730B840B37
:100B3000BAF09150A1F0FF0FBB1F661F771F881FEF
:100B4000C2F70EC0BA0F621F731F841F48F4879547
:100B500077956795B795F7959E3F08F0B0CF939539
:100B6000880F08F09927EE0F9795879508950E94B2
:100B70009A0608F481E008950E94D0050C94D506E9
:100B80000E94CE0658F00E94C70640F029F45F3F4D
:100B900029F00C94BE0651110C9409070C94C4065C
:100BA0000E94E60668F39923B1F3552391F3951B50
:100BB000550BBB27AA2762177307840738F09F5F7E
:100BC0005F4F220F331F441FAA1FA9F335D00E2EEB
:100BD0003AF0E0E832D091505040E695001CCAF758
:100BE0002BD0FE2F29D0660F771F881FBB1F26171B
:100BF00037074807AB07B0E809F0BB0B802DBF01F2
:100C0000FF2793585F4F3AF09E3F510578F00C94C0
:100C1000BE060C9409075F3FE4F3983ED4F3869533
:100C200077956795B795F7959F5FC9F7880F911DE1
:100C30009695879597F90895E1E0660F771F881FCD
:100C4000BB1F621773078407BA0720F0621B730B80
:100C5000840BBA0BEE1F88F7E09508950E94EE060C
:100C600088F09F5798F0B92F9927B751B0F0E1F06D
:100C7000660F771F881F991F1AF0BA95C9F714C01D
:100C8000B13091F00E940807B1E008950C94080774
:100C9000672F782F8827B85F39F0B93FCCF3869556
:100CA00077956795B395D9F73EF4909580957095B3
:100CB00061957F4F8F4F9F4F0895E89409C097FB30
:100CC0003EF490958095709561957F4F8F4F9F4F23
:100CD0009923A9F0F92F96E9BB279395F695879567
:100CE00077956795B795F111F8CFFAF4BB0F11F42A
:100CF00060FF1BC06F5F7F4F8F4F9F4F16C08823D1
:100D000011F096E911C0772321F09EE8872F762F06
:100D100005C0662371F096E8862F70E060E02AF047
:100D20009A95660F771F881FDAF7880F9695879533
:100D300097F90895990F0008550FAA0BE0E8FEEF08
:100D400016161706E807F907C0F012161306E4078F
:100D5000F50798F0621B730B840B950B39F40A2688
:100D600061F0232B242B252B21F408950A2609F466
:100D7000A140A6958FEF811D811D089597F99F676A
:100D800080E870E060E008959FEF80EC0895002413
:100D90000A941616170618060906089500240A94E0
:100DA00012161306140605060895092E0394000C66
:100DB00011F4882352F0BB0F40F4BF2B11F460FFF5
:100DC00004C06F5F7F4F8F4F9F4F089557FD90581E
:100DD000440F551F59F05F3F71F04795880F97FBFF
:100DE000991F61F09F3F79F08795089512161306B9
:100DF0001406551FF2CF4695F1DF08C016161706E8
:100E00001806991FF1CF869571056105089408951C
:100E1000E894BB2766277727CB0197F908950E94AE
:100E20009A0608F48FEF08950E9427070C94D506C0
:100E30000E94C70638F00E94CE0620F0952311F0DC
:100E40000C94BE060C94C40611240C9409070E944D
:100E5000E60670F3959FC1F3950F50E0551F629F12
:100E6000F001729FBB27F00DB11D639FAA27F00D03
:100E7000B11DAA1F649F6627B00DA11D661F829F2A
:100E80002227B00DA11D621F739FB00DA11D621F0F
:100E9000839FA00D611D221F749F3327A00D611D2C
:100EA000231F849F600D211D822F762F6A2F11240E
:100EB0009F5750409AF0F1F088234AF0EE0FFF1F41
:100EC000BB1F661F771F881F91505040A9F79E3F98
:100ED000510580F00C94BE060C9409075F3FE4F3C3
:100EE000983ED4F3869577956795B795F795E795EE
:100EF0009F5FC1F7FE2B880F911D9695879597F9F7
:100F000008950E949A06880B990B0895A1E21A2E63
:100F1000AA1BBB1BFD010DC0AA1FBB1FEE1FFF1F9D
:100F2000A217B307E407F50720F0A21BB30BE40BED
:100F3000F50B661F771F881F991F1A9469F7609534
:100F40007095809590959B01AC01BD01CF010895EE
:100F5000EE0FFF1F0590F491E02D0994F894FFCF58
:100F6000000000001F038700890188016E616E0088
:100F7000696E66006F7666005072617665656E20F8
:100F80004D616C696B00446567726565433D200087
:0C0F900046616872656E686569743D001A
:107E0000112484B714BE81FFF0D085E080938100F7
:107E100082E08093C00088E18093C10086E0809377
:107E2000C20080E18093C4008EE0C9D0259A86E02C
:107E300020E33CEF91E0309385002093840096BBD3
:107E4000B09BFECF1D9AA8958150A9F7CC24DD24C4
:107E500088248394B5E0AB2EA1E19A2EF3E0BF2EE7
:107E6000A2D0813461F49FD0082FAFD0023811F036
:107E7000013811F484E001C083E08DD089C08234E0
:107E800011F484E103C0853419F485E0A6D080C0E4
:107E9000853579F488D0E82EFF2485D0082F10E0AE
:107EA000102F00270E291F29000F111F8ED06801E7
:107EB0006FC0863521F484E090D080E0DECF843638
:107EC00009F040C070D06FD0082F6DD080E0C81688
:107ED00080E7D80618F4F601B7BEE895C0E0D1E017
:107EE00062D089930C17E1F7F0E0CF16F0E7DF06D8
:107EF00018F0F601B7BEE89568D007B600FCFDCFD4
:107F0000A601A0E0B1E02C9130E011968C91119780
:107F100090E0982F8827822B932B1296FA010C0160
:107F200087BEE89511244E5F5F4FF1E0A038BF0790
:107F300051F7F601A7BEE89507B600FCFDCF97BE46
:107F4000E89526C08437B1F42ED02DD0F82E2BD052
:107F50003CD0F601EF2C8F010F5F1F4F84911BD097
:107F6000EA94F801C1F70894C11CD11CFA94CF0C13
:107F7000D11C0EC0853739F428D08EE10CD085E9AC
:107F80000AD08FE07ACF813511F488E018D01DD067
:107F900080E101D065CF982F8091C00085FFFCCF94
:107FA0009093C60008958091C00087FFFCCF809118
:107FB000C00084FD01C0A8958091C6000895E0E648
:107FC000F0E098E1908380830895EDDF803219F02E
:107FD00088E0F5DFFFCF84E1DECF1F93182FE3DFCA
:107FE0001150E9F7F2DF1F91089580E0E8DFEE27F6
:047FF000FF270994CA
:027FFE00040479
:00000001FF
